:10000000370101001301010493026001130320046E
:100010001305C009EF00C005EF00C038EF008032C3
:10002000130505FD13060500EF00C037EF00803112
:1000300093060500EF000037EF00C030130505FD03
:10004000930205001305400BEF0080029385020028
:10005000130506009302A0026396D200EF00001E73
:100060006F008000EF004022EF0040076FF0DFF9E3
:100070001301C1FF232011009303050003C50300F2
:1000800063080500EF00002C938313006FF01FFF3F
:10009000832001001301410067800000496E0A00BF
:1000A0000A0D456E746572206F70657261746F72AF
:1000B000200A0D000A0D526573756C74203D2000F6
:1000C0004119000000726973637600010F0000009F
:1000D000057276333269327031000000130141FE3F
:1000E0002320510023226100232471002326C10113
:1000F0002328E101232AF101232C1100930500009C
:10010000930F1000939FFF00939515001303300089
:1001100093035000130EF000930210009392F2002C
:10012000B3F2A20063840200938515001315150035
:1001300093DF1F0063820F04B3F2C50163D4720022
:100140006F004002B3826200B3F2C201130F0000DD
:10015000130FFFFF334FEE01B3E2E201B3E5C50138
:10016000B3F555001313430093934300131E4E0041
:10017000E30C0EF86FF05FFC130E80009382050015
:1001800093D2C20093F2F20093820203138502001D
:10019000EF00401B93954500135E1E0063040E00A4
:1001A0006FF0DFFD1305A000EF00C0191305D000AC
:1001B000EF004019832201000323410083238100C3
:1001C000032EC100032F0101832F410183208101F0
:1001D0001301C101678000004119000000726973BA
:1001E000637600010F0000000572763332693270C9
:1001F00031000000130141FF2320D1002322E10040
:100200002324F10013070500938705001305000060
:1002100093F61700638406003305E50093D71700B3
:1002200013171700E39607FE8326010003274100FA
:10023000832781001301C10067800000B7014200DD
:1002400023A2A10023A4B1001305100023A6A1003E
:1002500023A601009302100003A34101337353004E
:10026000E30A03FE03A501016780000041190000B5
:1002700000726973637600010F0000000572763327
:100280003269327031000000130181FF2320D10058
:10029000A320C10013860500930505001305F0FF98
:1002A000630C060293061000637AB6006358C00020
:1002B0001316160093961600E36AB6FE13050000A7
:1002C00063E6C500B385C5403365D50093D61600F7
:1002D00013561600E39606FE83260100032611003E
:1002E00013018100678000004119000000726973EA
:1002F000637600010F0000000572763332693270B8
:10030000310000001301C1FF2320510093021000AF
:10031000B392A2009382F2FFE39E02FE83220100C9
:1003200013014100678000004119000000726973E9
:10033000637600010F000000057276333269327077
:1003400031000000130181FF2320510023226100AE
:10035000B701400023A4A1009302800023A851000C
:100360009302000023A851009302002003A301017F
:1003700033735300E31C03FE832201000323410077
:100380001301810067800000411900000072697349
:10039000637600010F000000057276333269327017
:1003A000310000001301C1FF23205100B7014000BC
:1003B00003A5010193720510E38C02FE9302100065
:1003C00023A851009302000023A8510003A5810037
:1003D0001375F50F832201001301410067800000AF
:1003E0004119000000726973637600010F0000007C
:0A03F0000572763332693270310075
:00000001FF
