:100000003703400013038300B703400093830301C9
:10001000930E800403AF0300137F0F20E31C0FFE39
:100020002320D301930F800023A0F301930F00003E
:1000300023A0F301930E500603AF0300137F0F209C
:10004000E31C0FFE2320D301930F800023A0F301B4
:10005000930F000023A0F301930EC00603AF03002B
:10006000137F0F20E31C0FFE2320D301930F80008A
:1000700023A0F301930F000023A0F301930EC00609
:1000800003AF0300137F0F20E31C0FFE2320D301D7
:10009000930F800023A0F301930F000023A0F3012E
:1000A000930EF00603AF0300137F0F20E31C0FFE37
:1000B0002320D301930F800023A0F301930F0000AE
:1000C00023A0F301930E000203AF0300137F0F2060
:1000D000E31C0FFE2320D301930F800023A0F30124
:1000E000930F000023A0F301930E700503AF0300EC
:1000F000137F0F20E31C0FFE2320D301930F8000FA
:1001000023A0F301930F000023A0F301930EF00648
:1001100003AF0300137F0F20E31C0FFE2320D30146
:10012000930F800023A0F301930F000023A0F3019D
:10013000930E200703AF0300137F0F20E31C0FFE75
:100140002320D301930F800023A0F301930F00001D
:1001500023A0F301930EC00603AF0300137F0F200B
:10016000E31C0FFE2320D301930F800023A0F30193
:10017000930F000023A0F301930E400603AF03008A
:10018000137F0F20E31C0FFE2320D301930F800069
:1001900023A0F301930F000023A0F301930E0002AC
:1001A00003AF0300137F0F20E31C0FFE2320D301B6
:1001B000930F800023A0F301930F000023A0F3010D
:1001C000930E600603AF0300137F0F20E31C0FFEA6
:1001D0002320D301930F800023A0F301930F00008D
:1001E00023A0F301930E200703AF0300137F0F201A
:1001F000E31C0FFE2320D301930F800023A0F30103
:10020000930F000023A0F301930EF00603AF030049
:10021000137F0F20E31C0FFE2320D301930F8000D8
:1002200023A0F301930F000023A0F301930ED00647
:1002300003AF0300137F0F20E31C0FFE2320D30125
:10024000930F800023A0F301930F000023A0F3017C
:10025000930E000203AF0300137F0F20E31C0FFE79
:100260002320D301930F800023A0F301930F0000FC
:1002700023A0F301930E600603AF0300137F0F204A
:10028000E31C0FFE2320D301930F800023A0F30172
:10029000930F000023A0F301930E500603AF030059
:1002A000137F0F20E31C0FFE2320D301930F800048
:1002B00023A0F301930F000023A0F301930ED006B7
:1002C00003AF0300137F0F20E31C0FFE2320D30195
:1002D000930F800023A0F301930F000023A0F301EC
:1002E000930E400703AF0300137F0F20E31C0FFEA4
:1002F0002320D301930F800023A0F301930F00006C
:1003000023A0F301930EF00603AF0300137F0F2029
:10031000E31C0FFE2320D301930F800023A0F301E1
:10032000930F000023A0F301930E000203AF03001C
:10033000137F0F20E31C0FFE2320D301930F8000B7
:1003400023A0F301930F000023A0F301930E5005A7
:1003500003AF0300137F0F20E31C0FFE2320D30104
:10036000930F800023A0F301930F000023A0F3015B
:10037000930EE00403AF0300137F0F20E31C0FFE76
:100380002320D301930F800023A0F301930F0000DB
:1003900023A0F301930EA00003AF0300137F0F20EF
:1003A000E31C0FFE2320D301930F800023A0F30151
:1003B000930F000023A0F301930ED00003AF0300BE
:1003C000137F0F20E31C0FFE2320D301930F800027
:1003D00023A0F301930F000023A0F3019302200058
:1003E000930F400023A0F301378F0000130F6F3DE0
:1003F000130FFFFFE31E0FFE930F000023A0F30176
:10040000378F0000130F6F3D130FFFFFE31E0FFE2A
:100410009382F2FFE39602FC03AE0300137E0E10FC
:10042000E30C0EFE832E030093FEFE0F930F1000CD
:1004300023A0F301930F000023A0F30103AE0300F8
:10044000137E0E20E31C0EFE2320D301930F8000A9
:1004500023A0F301930F000023A0F3016FF0DFFB53
:00000001FF
